{
  "address": "0x5FbDB2315678afecb367f032d93F642f64180aa3",
  "abi": [
    {
      "inputs": [],
      "stateMutability": "nonpayable",
      "type": "constructor"
    },
    {
      "anonymous": false,
      "inputs": [
        {
          "indexed": true,
          "internalType": "address",
          "name": "owner",
          "type": "address"
        },
        {
          "indexed": true,
          "internalType": "address",
          "name": "spender",
          "type": "address"
        },
        {
          "indexed": false,
          "internalType": "uint256",
          "name": "value",
          "type": "uint256"
        }
      ],
      "name": "Approval",
      "type": "event"
    },
    {
      "anonymous": false,
      "inputs": [
        {
          "indexed": true,
          "internalType": "address",
          "name": "delegator",
          "type": "address"
        },
        {
          "indexed": true,
          "internalType": "address",
          "name": "fromDelegate",
          "type": "address"
        },
        {
          "indexed": true,
          "internalType": "address",
          "name": "toDelegate",
          "type": "address"
        }
      ],
      "name": "DelegateChanged",
      "type": "event"
    },
    {
      "anonymous": false,
      "inputs": [
        {
          "indexed": true,
          "internalType": "address",
          "name": "delegate",
          "type": "address"
        },
        {
          "indexed": false,
          "internalType": "uint256",
          "name": "previousBalance",
          "type": "uint256"
        },
        {
          "indexed": false,
          "internalType": "uint256",
          "name": "newBalance",
          "type": "uint256"
        }
      ],
      "name": "DelegateVotesChanged",
      "type": "event"
    },
    {
      "anonymous": false,
      "inputs": [
        {
          "indexed": true,
          "internalType": "address",
          "name": "previousOwner",
          "type": "address"
        },
        {
          "indexed": true,
          "internalType": "address",
          "name": "newOwner",
          "type": "address"
        }
      ],
      "name": "OwnershipTransferred",
      "type": "event"
    },
    {
      "anonymous": false,
      "inputs": [
        {
          "indexed": false,
          "internalType": "address",
          "name": "account",
          "type": "address"
        }
      ],
      "name": "Paused",
      "type": "event"
    },
    {
      "anonymous": false,
      "inputs": [
        {
          "indexed": true,
          "internalType": "address",
          "name": "from",
          "type": "address"
        },
        {
          "indexed": true,
          "internalType": "address",
          "name": "to",
          "type": "address"
        },
        {
          "indexed": false,
          "internalType": "uint256",
          "name": "value",
          "type": "uint256"
        }
      ],
      "name": "Transfer",
      "type": "event"
    },
    {
      "anonymous": false,
      "inputs": [
        {
          "indexed": false,
          "internalType": "address",
          "name": "account",
          "type": "address"
        }
      ],
      "name": "Unpaused",
      "type": "event"
    },
    {
      "inputs": [],
      "name": "DOMAIN_SEPARATOR",
      "outputs": [
        {
          "internalType": "bytes32",
          "name": "",
          "type": "bytes32"
        }
      ],
      "stateMutability": "view",
      "type": "function"
    },
    {
      "inputs": [
        {
          "internalType": "address",
          "name": "owner",
          "type": "address"
        },
        {
          "internalType": "address",
          "name": "spender",
          "type": "address"
        }
      ],
      "name": "allowance",
      "outputs": [
        {
          "internalType": "uint256",
          "name": "",
          "type": "uint256"
        }
      ],
      "stateMutability": "view",
      "type": "function"
    },
    {
      "inputs": [
        {
          "internalType": "address",
          "name": "spender",
          "type": "address"
        },
        {
          "internalType": "uint256",
          "name": "amount",
          "type": "uint256"
        }
      ],
      "name": "approve",
      "outputs": [
        {
          "internalType": "bool",
          "name": "",
          "type": "bool"
        }
      ],
      "stateMutability": "nonpayable",
      "type": "function"
    },
    {
      "inputs": [
        {
          "internalType": "address",
          "name": "account",
          "type": "address"
        }
      ],
      "name": "balanceOf",
      "outputs": [
        {
          "internalType": "uint256",
          "name": "",
          "type": "uint256"
        }
      ],
      "stateMutability": "view",
      "type": "function"
    },
    {
      "inputs": [
        {
          "internalType": "uint256",
          "name": "amount",
          "type": "uint256"
        }
      ],
      "name": "burn",
      "outputs": [],
      "stateMutability": "nonpayable",
      "type": "function"
    },
    {
      "inputs": [
        {
          "internalType": "address",
          "name": "account",
          "type": "address"
        },
        {
          "internalType": "uint256",
          "name": "amount",
          "type": "uint256"
        }
      ],
      "name": "burnFrom",
      "outputs": [],
      "stateMutability": "nonpayable",
      "type": "function"
    },
    {
      "inputs": [
        {
          "internalType": "address",
          "name": "from",
          "type": "address"
        }
      ],
      "name": "canComment",
      "outputs": [
        {
          "internalType": "bool",
          "name": "",
          "type": "bool"
        }
      ],
      "stateMutability": "view",
      "type": "function"
    },
    {
      "inputs": [
        {
          "internalType": "address",
          "name": "from",
          "type": "address"
        }
      ],
      "name": "canPost",
      "outputs": [
        {
          "internalType": "bool",
          "name": "",
          "type": "bool"
        }
      ],
      "stateMutability": "view",
      "type": "function"
    },
    {
      "inputs": [
        {
          "internalType": "uint256",
          "name": "newThreshold",
          "type": "uint256"
        }
      ],
      "name": "changeCommentThreshold",
      "outputs": [],
      "stateMutability": "nonpayable",
      "type": "function"
    },
    {
      "inputs": [
        {
          "internalType": "uint256",
          "name": "newThreshold",
          "type": "uint256"
        }
      ],
      "name": "changePostThreshold",
      "outputs": [],
      "stateMutability": "nonpayable",
      "type": "function"
    },
    {
      "inputs": [
        {
          "internalType": "address",
          "name": "account",
          "type": "address"
        },
        {
          "internalType": "uint32",
          "name": "pos",
          "type": "uint32"
        }
      ],
      "name": "checkpoints",
      "outputs": [
        {
          "components": [
            {
              "internalType": "uint32",
              "name": "fromBlock",
              "type": "uint32"
            },
            {
              "internalType": "uint224",
              "name": "votes",
              "type": "uint224"
            }
          ],
          "internalType": "struct ERC20Votes.Checkpoint",
          "name": "",
          "type": "tuple"
        }
      ],
      "stateMutability": "view",
      "type": "function"
    },
    {
      "inputs": [],
      "name": "commentThreshold",
      "outputs": [
        {
          "internalType": "uint256",
          "name": "",
          "type": "uint256"
        }
      ],
      "stateMutability": "view",
      "type": "function"
    },
    {
      "inputs": [],
      "name": "decimals",
      "outputs": [
        {
          "internalType": "uint8",
          "name": "",
          "type": "uint8"
        }
      ],
      "stateMutability": "view",
      "type": "function"
    },
    {
      "inputs": [
        {
          "internalType": "address",
          "name": "spender",
          "type": "address"
        },
        {
          "internalType": "uint256",
          "name": "subtractedValue",
          "type": "uint256"
        }
      ],
      "name": "decreaseAllowance",
      "outputs": [
        {
          "internalType": "bool",
          "name": "",
          "type": "bool"
        }
      ],
      "stateMutability": "nonpayable",
      "type": "function"
    },
    {
      "inputs": [
        {
          "internalType": "address",
          "name": "delegatee",
          "type": "address"
        }
      ],
      "name": "delegate",
      "outputs": [],
      "stateMutability": "nonpayable",
      "type": "function"
    },
    {
      "inputs": [
        {
          "internalType": "address",
          "name": "delegatee",
          "type": "address"
        },
        {
          "internalType": "uint256",
          "name": "nonce",
          "type": "uint256"
        },
        {
          "internalType": "uint256",
          "name": "expiry",
          "type": "uint256"
        },
        {
          "internalType": "uint8",
          "name": "v",
          "type": "uint8"
        },
        {
          "internalType": "bytes32",
          "name": "r",
          "type": "bytes32"
        },
        {
          "internalType": "bytes32",
          "name": "s",
          "type": "bytes32"
        }
      ],
      "name": "delegateBySig",
      "outputs": [],
      "stateMutability": "nonpayable",
      "type": "function"
    },
    {
      "inputs": [
        {
          "internalType": "address",
          "name": "account",
          "type": "address"
        }
      ],
      "name": "delegates",
      "outputs": [
        {
          "internalType": "address",
          "name": "",
          "type": "address"
        }
      ],
      "stateMutability": "view",
      "type": "function"
    },
    {
      "inputs": [
        {
          "internalType": "uint256",
          "name": "blockNumber",
          "type": "uint256"
        }
      ],
      "name": "getPastTotalSupply",
      "outputs": [
        {
          "internalType": "uint256",
          "name": "",
          "type": "uint256"
        }
      ],
      "stateMutability": "view",
      "type": "function"
    },
    {
      "inputs": [
        {
          "internalType": "address",
          "name": "account",
          "type": "address"
        },
        {
          "internalType": "uint256",
          "name": "blockNumber",
          "type": "uint256"
        }
      ],
      "name": "getPastVotes",
      "outputs": [
        {
          "internalType": "uint256",
          "name": "",
          "type": "uint256"
        }
      ],
      "stateMutability": "view",
      "type": "function"
    },
    {
      "inputs": [
        {
          "internalType": "address",
          "name": "account",
          "type": "address"
        }
      ],
      "name": "getVotes",
      "outputs": [
        {
          "internalType": "uint256",
          "name": "",
          "type": "uint256"
        }
      ],
      "stateMutability": "view",
      "type": "function"
    },
    {
      "inputs": [
        {
          "internalType": "address",
          "name": "spender",
          "type": "address"
        },
        {
          "internalType": "uint256",
          "name": "addedValue",
          "type": "uint256"
        }
      ],
      "name": "increaseAllowance",
      "outputs": [
        {
          "internalType": "bool",
          "name": "",
          "type": "bool"
        }
      ],
      "stateMutability": "nonpayable",
      "type": "function"
    },
    {
      "inputs": [
        {
          "internalType": "address",
          "name": "to",
          "type": "address"
        },
        {
          "internalType": "uint256",
          "name": "amount",
          "type": "uint256"
        }
      ],
      "name": "mint",
      "outputs": [],
      "stateMutability": "nonpayable",
      "type": "function"
    },
    {
      "inputs": [],
      "name": "name",
      "outputs": [
        {
          "internalType": "string",
          "name": "",
          "type": "string"
        }
      ],
      "stateMutability": "view",
      "type": "function"
    },
    {
      "inputs": [
        {
          "internalType": "address",
          "name": "owner",
          "type": "address"
        }
      ],
      "name": "nonces",
      "outputs": [
        {
          "internalType": "uint256",
          "name": "",
          "type": "uint256"
        }
      ],
      "stateMutability": "view",
      "type": "function"
    },
    {
      "inputs": [
        {
          "internalType": "address",
          "name": "account",
          "type": "address"
        }
      ],
      "name": "numCheckpoints",
      "outputs": [
        {
          "internalType": "uint32",
          "name": "",
          "type": "uint32"
        }
      ],
      "stateMutability": "view",
      "type": "function"
    },
    {
      "inputs": [],
      "name": "owner",
      "outputs": [
        {
          "internalType": "address",
          "name": "",
          "type": "address"
        }
      ],
      "stateMutability": "view",
      "type": "function"
    },
    {
      "inputs": [],
      "name": "pause",
      "outputs": [],
      "stateMutability": "nonpayable",
      "type": "function"
    },
    {
      "inputs": [],
      "name": "paused",
      "outputs": [
        {
          "internalType": "bool",
          "name": "",
          "type": "bool"
        }
      ],
      "stateMutability": "view",
      "type": "function"
    },
    {
      "inputs": [
        {
          "internalType": "address",
          "name": "owner",
          "type": "address"
        },
        {
          "internalType": "address",
          "name": "spender",
          "type": "address"
        },
        {
          "internalType": "uint256",
          "name": "value",
          "type": "uint256"
        },
        {
          "internalType": "uint256",
          "name": "deadline",
          "type": "uint256"
        },
        {
          "internalType": "uint8",
          "name": "v",
          "type": "uint8"
        },
        {
          "internalType": "bytes32",
          "name": "r",
          "type": "bytes32"
        },
        {
          "internalType": "bytes32",
          "name": "s",
          "type": "bytes32"
        }
      ],
      "name": "permit",
      "outputs": [],
      "stateMutability": "nonpayable",
      "type": "function"
    },
    {
      "inputs": [],
      "name": "postThreshold",
      "outputs": [
        {
          "internalType": "uint256",
          "name": "",
          "type": "uint256"
        }
      ],
      "stateMutability": "view",
      "type": "function"
    },
    {
      "inputs": [],
      "name": "renounceOwnership",
      "outputs": [],
      "stateMutability": "nonpayable",
      "type": "function"
    },
    {
      "inputs": [],
      "name": "symbol",
      "outputs": [
        {
          "internalType": "string",
          "name": "",
          "type": "string"
        }
      ],
      "stateMutability": "view",
      "type": "function"
    },
    {
      "inputs": [],
      "name": "totalSupply",
      "outputs": [
        {
          "internalType": "uint256",
          "name": "",
          "type": "uint256"
        }
      ],
      "stateMutability": "view",
      "type": "function"
    },
    {
      "inputs": [
        {
          "internalType": "address",
          "name": "to",
          "type": "address"
        },
        {
          "internalType": "uint256",
          "name": "amount",
          "type": "uint256"
        }
      ],
      "name": "transfer",
      "outputs": [
        {
          "internalType": "bool",
          "name": "",
          "type": "bool"
        }
      ],
      "stateMutability": "nonpayable",
      "type": "function"
    },
    {
      "inputs": [
        {
          "internalType": "address",
          "name": "from",
          "type": "address"
        },
        {
          "internalType": "address",
          "name": "to",
          "type": "address"
        },
        {
          "internalType": "uint256",
          "name": "amount",
          "type": "uint256"
        }
      ],
      "name": "transferFrom",
      "outputs": [
        {
          "internalType": "bool",
          "name": "",
          "type": "bool"
        }
      ],
      "stateMutability": "nonpayable",
      "type": "function"
    },
    {
      "inputs": [
        {
          "internalType": "address",
          "name": "newOwner",
          "type": "address"
        }
      ],
      "name": "transferOwnership",
      "outputs": [],
      "stateMutability": "nonpayable",
      "type": "function"
    },
    {
      "inputs": [],
      "name": "unpause",
      "outputs": [],
      "stateMutability": "nonpayable",
      "type": "function"
    }
  ],
  "transactionHash": "0xaba823c8ed3ca364f6555338ae51e7ce54de50d6082355dd8ed8c3477b15658a",
  "args": [],
  "numDeployments": 1,
  "solcInputHash": "120a07c5cb26eff8f5df30a0754d666e",
  "bytecode": "0x6101406040523480156200001257600080fd5b506040518060400160405280600381526020017f5449500000000000000000000000000000000000000000000000000000000000815250806040518060400160405280600181526020017f31000000000000000000000000000000000000000000000000000000000000008152506040518060400160405280600381526020017f54495000000000000000000000000000000000000000000000000000000000008152506040518060400160405280600381526020017f544950000000000000000000000000000000000000000000000000000000000081525081600390805190602001906200010492919062000df4565b5080600490805190602001906200011d92919062000df4565b5050506000600560006101000a81548160ff0219169083151502179055506200015b6200014f620002ba60201b60201c565b620002c260201b60201c565b60008280519060200120905060008280519060200120905060007f8b73c3c69bb8fe3d512ecc4cf759cc79239f7b179b0ffacaa9a75d522b39400f90508260e081815250508161010081815250504660a08181525050620001c48184846200038860201b60201c565b608081815250503073ffffffffffffffffffffffffffffffffffffffff1660c08173ffffffffffffffffffffffffffffffffffffffff1660601b81525050806101208181525050505050505050620002503362000226620003c460201b60201c565b600a620002349190620011b4565b62989680620002449190620012f1565b620003cd60201b60201c565b62000260620003c460201b60201c565b600a6200026e9190620011b4565b60646200027c9190620012f1565b600b8190555062000292620003c460201b60201c565b600a620002a09190620011b4565b6019620002ae9190620012f1565b600c81905550620015c2565b600033905090565b6000600560019054906101000a900473ffffffffffffffffffffffffffffffffffffffff16905081600560016101000a81548173ffffffffffffffffffffffffffffffffffffffff021916908373ffffffffffffffffffffffffffffffffffffffff1602179055508173ffffffffffffffffffffffffffffffffffffffff168173ffffffffffffffffffffffffffffffffffffffff167f8be0079c531659141344cd1fd0a4f28419497f9722a3daafe3b4186f6b6457e060405160405180910390a35050565b60008383834630604051602001620003a595949392919062000f9a565b6040516020818303038152906040528051906020012090509392505050565b60006012905090565b620003e48282620003e860201b620012df1760201c565b5050565b620003ff8282620004a660201b6200136c1760201c565b6200040f6200061460201b60201c565b7bffffffffffffffffffffffffffffffffffffffffffffffffffffffff166200043d6200063860201b60201c565b111562000481576040517f08c379a0000000000000000000000000000000000000000000000000000000008152600401620004789062001019565b60405180910390fd5b620004a0600a6200064260201b620014c317836200065a60201b60201c565b50505050565b600073ffffffffffffffffffffffffffffffffffffffff168273ffffffffffffffffffffffffffffffffffffffff16141562000519576040517f08c379a000000000000000000000000000000000000000000000000000000000815260040162000510906200107f565b60405180910390fd5b6200052d600083836200096760201b60201c565b8060026000828254620005419190620010fc565b92505081905550806000808473ffffffffffffffffffffffffffffffffffffffff1673ffffffffffffffffffffffffffffffffffffffff168152602001908152602001600020600082825401925050819055508173ffffffffffffffffffffffffffffffffffffffff16600073ffffffffffffffffffffffffffffffffffffffff167fddf252ad1be2c89b69c2b068fc378daa952ba7f163c4a11628f55a4df523b3ef83604051620005f49190620010a1565b60405180910390a362000610600083836200099460201b60201c565b5050565b60007bffffffffffffffffffffffffffffffffffffffffffffffffffffffff905090565b6000600254905090565b60008183620006529190620010fc565b905092915050565b60008060008580549050905060008082146200073557620006908760018462000684919062001352565b620009b160201b60201c565b6040518060400160405290816000820160009054906101000a900463ffffffff1663ffffffff1663ffffffff1681526020016000820160049054906101000a90047bffffffffffffffffffffffffffffffffffffffffffffffffffffffff167bffffffffffffffffffffffffffffffffffffffffffffffffffffffff167bffffffffffffffffffffffffffffffffffffffffffffffffffffffff168152505062000771565b6040518060400160405280600063ffffffff16815260200160007bffffffffffffffffffffffffffffffffffffffffffffffffffffffff168152505b905080602001517bffffffffffffffffffffffffffffffffffffffffffffffffffffffff169350620007a484868860201c565b9250600082118015620007c0575043816000015163ffffffff16145b156200085357620007dc83620009c660201b620014d91760201c565b620007fc88600185620007f0919062001352565b620009b160201b60201c565b60000160046101000a8154817bffffffffffffffffffffffffffffffffffffffffffffffffffffffff02191690837bffffffffffffffffffffffffffffffffffffffffffffffffffffffff1602179055506200095d565b866040518060400160405280620008754362000a3460201b620015441760201c565b63ffffffff1681526020016200089686620009c660201b620014d91760201c565b7bffffffffffffffffffffffffffffffffffffffffffffffffffffffff168152509080600181540180825580915050600190039060005260206000200160009091909190915060008201518160000160006101000a81548163ffffffff021916908363ffffffff16021790555060208201518160000160046101000a8154817bffffffffffffffffffffffffffffffffffffffffffffffffffffffff02191690837bffffffffffffffffffffffffffffffffffffffffffffffffffffffff16021790555050505b5050935093915050565b6200097762000a8a60201b60201c565b6200098f83838362000adf60201b620015971760201c565b505050565b620009ac83838362000ae460201b6200159c1760201c565b505050565b60008260005281602060002001905092915050565b60007bffffffffffffffffffffffffffffffffffffffffffffffffffffffff801682111562000a2c576040517f08c379a000000000000000000000000000000000000000000000000000000000815260040162000a23906200103b565b60405180910390fd5b819050919050565b600063ffffffff801682111562000a82576040517f08c379a000000000000000000000000000000000000000000000000000000000815260040162000a79906200105d565b60405180910390fd5b819050919050565b62000a9a62000b3460201b60201c565b1562000add576040517f08c379a000000000000000000000000000000000000000000000000000000000815260040162000ad49062000ff7565b60405180910390fd5b565b505050565b62000afc83838362000b4b60201b620015c71760201c565b62000b2f62000b118462000b5060201b60201c565b62000b228462000b5060201b60201c565b8362000bb960201b60201c565b505050565b6000600560009054906101000a900460ff16905090565b505050565b6000600860008373ffffffffffffffffffffffffffffffffffffffff1673ffffffffffffffffffffffffffffffffffffffff16815260200190815260200160002060009054906101000a900473ffffffffffffffffffffffffffffffffffffffff169050919050565b8173ffffffffffffffffffffffffffffffffffffffff168373ffffffffffffffffffffffffffffffffffffffff161415801562000bf65750600081115b1562000dd757600073ffffffffffffffffffffffffffffffffffffffff168373ffffffffffffffffffffffffffffffffffffffff161462000ce95760008062000c90600960008773ffffffffffffffffffffffffffffffffffffffff1673ffffffffffffffffffffffffffffffffffffffff16815260200190815260200160002062000ddc60201b620015cc17856200065a60201b60201c565b915091508473ffffffffffffffffffffffffffffffffffffffff167fdec2bacdd2f05b59de34da9b523dff8be42e5e38e818c82fdb0bae774387a724838360405162000cde929190620010be565b60405180910390a250505b600073ffffffffffffffffffffffffffffffffffffffff168273ffffffffffffffffffffffffffffffffffffffff161462000dd65760008062000d7d600960008673ffffffffffffffffffffffffffffffffffffffff1673ffffffffffffffffffffffffffffffffffffffff1681526020019081526020016000206200064260201b620014c317856200065a60201b60201c565b915091508373ffffffffffffffffffffffffffffffffffffffff167fdec2bacdd2f05b59de34da9b523dff8be42e5e38e818c82fdb0bae774387a724838360405162000dcb929190620010be565b60405180910390a250505b5b505050565b6000818362000dec919062001352565b905092915050565b82805462000e0290620013e2565b90600052602060002090601f01602090048101928262000e26576000855562000e72565b82601f1062000e4157805160ff191683800117855562000e72565b8280016001018555821562000e72579182015b8281111562000e7157825182559160200191906001019062000e54565b5b50905062000e81919062000e85565b5090565b5b8082111562000ea057600081600090555060010162000e86565b5090565b62000eaf816200138d565b82525050565b62000ec081620013a1565b82525050565b600062000ed5601083620010eb565b915062000ee28262001483565b602082019050919050565b600062000efc603083620010eb565b915062000f0982620014ac565b604082019050919050565b600062000f23602783620010eb565b915062000f3082620014fb565b604082019050919050565b600062000f4a602683620010eb565b915062000f57826200154a565b604082019050919050565b600062000f71601f83620010eb565b915062000f7e8262001599565b602082019050919050565b62000f9481620013cb565b82525050565b600060a08201905062000fb1600083018862000eb5565b62000fc0602083018762000eb5565b62000fcf604083018662000eb5565b62000fde606083018562000f89565b62000fed608083018462000ea4565b9695505050505050565b60006020820190508181036000830152620010128162000ec6565b9050919050565b60006020820190508181036000830152620010348162000eed565b9050919050565b60006020820190508181036000830152620010568162000f14565b9050919050565b60006020820190508181036000830152620010788162000f3b565b9050919050565b600060208201905081810360008301526200109a8162000f62565b9050919050565b6000602082019050620010b8600083018462000f89565b92915050565b6000604082019050620010d5600083018562000f89565b620010e4602083018462000f89565b9392505050565b600082825260208201905092915050565b60006200110982620013cb565b91506200111683620013cb565b9250827fffffffffffffffffffffffffffffffffffffffffffffffffffffffffffffffff038211156200114e576200114d62001418565b5b828201905092915050565b6000808291508390505b6001851115620011ab5780860481111562001183576200118262001418565b5b6001851615620011935780820291505b8081029050620011a38562001476565b945062001163565b94509492505050565b6000620011c182620013cb565b9150620011ce83620013d5565b9250620011fd7fffffffffffffffffffffffffffffffffffffffffffffffffffffffffffffffff848462001205565b905092915050565b600082620012175760019050620012ea565b81620012275760009050620012ea565b81600181146200124057600281146200124b5762001281565b6001915050620012ea565b60ff84111562001260576200125f62001418565b5b8360020a9150848211156200127a576200127962001418565b5b50620012ea565b5060208310610133831016604e8410600b8410161715620012bb5782820a905083811115620012b557620012b462001418565b5b620012ea565b620012ca848484600162001159565b92509050818404811115620012e457620012e362001418565b5b81810290505b9392505050565b6000620012fe82620013cb565b91506200130b83620013cb565b9250817fffffffffffffffffffffffffffffffffffffffffffffffffffffffffffffffff048311821515161562001347576200134662001418565b5b828202905092915050565b60006200135f82620013cb565b91506200136c83620013cb565b92508282101562001382576200138162001418565b5b828203905092915050565b60006200139a82620013ab565b9050919050565b6000819050919050565b600073ffffffffffffffffffffffffffffffffffffffff82169050919050565b6000819050919050565b600060ff82169050919050565b60006002820490506001821680620013fb57607f821691505b6020821081141562001412576200141162001447565b5b50919050565b7f4e487b7100000000000000000000000000000000000000000000000000000000600052601160045260246000fd5b7f4e487b7100000000000000000000000000000000000000000000000000000000600052602260045260246000fd5b60008160011c9050919050565b7f5061757361626c653a2070617573656400000000000000000000000000000000600082015250565b7f4552433230566f7465733a20746f74616c20737570706c79207269736b73206f60008201527f766572666c6f77696e6720766f74657300000000000000000000000000000000602082015250565b7f53616665436173743a2076616c756520646f65736e27742066697420696e203260008201527f3234206269747300000000000000000000000000000000000000000000000000602082015250565b7f53616665436173743a2076616c756520646f65736e27742066697420696e203360008201527f3220626974730000000000000000000000000000000000000000000000000000602082015250565b7f45524332303a206d696e7420746f20746865207a65726f206164647265737300600082015250565b60805160a05160c05160601c60e0516101005161012051614692620016156000396000611b6701526000611ba901526000611b8801526000611abd01526000611b1301526000611b3c01526146926000f3fe608060405234801561001057600080fd5b50600436106102275760003560e01c8063715018a611610130578063a457c2d7116100b8578063da3a96611161007c578063da3a96611461069e578063dd62ed3e146106ba578063ed25f27c146106ea578063f1127ed814610708578063f2fde38b1461073857610227565b8063a457c2d7146105d6578063a48603db14610606578063a9059cbb14610636578063c3cda52014610666578063d505accf1461068257610227565b80638456cb59116100ff5780638456cb59146105305780638da5cb5b1461053a5780638e539e8c1461055857806395d89b41146105885780639ab24eb0146105a657610227565b8063715018a6146104be57806379a0b20a146104c857806379cc6790146104e45780637ecebe001461050057610227565b80633f4ba83a116101b35780635c19a95c116101825780635c19a95c146103f45780635c975abb1461041057806362d3576b1461042e5780636fcfff451461045e57806370a082311461048e57610227565b80633f4ba83a1461038257806340c10f191461038c57806342966c68146103a8578063587cde1e146103c457610227565b806323b872dd116101fa57806323b872dd146102b6578063313ce567146102e65780633644e5151461030457806339509351146103225780633a46b1a81461035257610227565b806306fdde031461022c578063095ea7b31461024a57806318160ddd1461027a57806318f2bf9014610298575b600080fd5b610234610754565b6040516102419190613739565b60405180910390f35b610264600480360381019061025f9190612fb4565b6107e6565b60405161027191906135c5565b60405180910390f35b610282610809565b60405161028f9190613a96565b60405180910390f35b6102a0610813565b6040516102ad9190613a96565b60405180910390f35b6102d060048036038101906102cb9190612ebf565b610819565b6040516102dd91906135c5565b60405180910390f35b6102ee610848565b6040516102fb9190613af5565b60405180910390f35b61030c610851565b60405161031991906135e0565b60405180910390f35b61033c60048036038101906103379190612fb4565b610860565b60405161034991906135c5565b60405180910390f35b61036c60048036038101906103679190612fb4565b610897565b6040516103799190613a96565b60405180910390f35b61038a61092b565b005b6103a660048036038101906103a19190612fb4565b61093d565b005b6103c260048036038101906103bd91906130c1565b610953565b005b6103de60048036038101906103d99190612e52565b610967565b6040516103eb91906135aa565b60405180910390f35b61040e60048036038101906104099190612e52565b6109d0565b005b6104186109e4565b60405161042591906135c5565b60405180910390f35b61044860048036038101906104439190612e52565b6109fb565b60405161045591906135c5565b60405180910390f35b61047860048036038101906104739190612e52565b610a12565b6040516104859190613ada565b60405180910390f35b6104a860048036038101906104a39190612e52565b610a66565b6040516104b59190613a96565b60405180910390f35b6104c6610aae565b005b6104e260048036038101906104dd91906130c1565b610ac2565b005b6104fe60048036038101906104f99190612fb4565b610af2565b005b61051a60048036038101906105159190612e52565b610b12565b6040516105279190613a96565b60405180910390f35b610538610b62565b005b610542610b74565b60405161054f91906135aa565b60405180910390f35b610572600480360381019061056d91906130c1565b610b9e565b60405161057f9190613a96565b60405180910390f35b610590610bf4565b60405161059d9190613739565b60405180910390f35b6105c060048036038101906105bb9190612e52565b610c86565b6040516105cd9190613a96565b60405180910390f35b6105f060048036038101906105eb9190612fb4565b610d97565b6040516105fd91906135c5565b60405180910390f35b610620600480360381019061061b9190612e52565b610e0e565b60405161062d91906135c5565b60405180910390f35b610650600480360381019061064b9190612fb4565b610e25565b60405161065d91906135c5565b60405180910390f35b610680600480360381019061067b9190612ff4565b610e48565b005b61069c60048036038101906106979190612f12565b610f4c565b005b6106b860048036038101906106b391906130c1565b61108e565b005b6106d460048036038101906106cf9190612e7f565b6110be565b6040516106e19190613a96565b60405180910390f35b6106f2611145565b6040516106ff9190613a96565b60405180910390f35b610722600480360381019061071d9190613081565b61114b565b60405161072f9190613a7b565b60405180910390f35b610752600480360381019061074d9190612e52565b61125b565b005b60606003805461076390613e87565b80601f016020809104026020016040519081016040528092919081815260200182805461078f90613e87565b80156107dc5780601f106107b1576101008083540402835291602001916107dc565b820191906000526020600020905b8154815290600101906020018083116107bf57829003601f168201915b5050505050905090565b6000806107f16115e2565b90506107fe8185856115ea565b600191505092915050565b6000600254905090565b600c5481565b6000806108246115e2565b90506108318582856117b5565b61083c858585611841565b60019150509392505050565b60006012905090565b600061085b611ab9565b905090565b60008061086b6115e2565b905061088c81858561087d85896110be565b6108879190613b37565b6115ea565b600191505092915050565b60004382106108db576040517f08c379a00000000000000000000000000000000000000000000000000000000081526004016108d29061379b565b60405180910390fd5b610923600960008573ffffffffffffffffffffffffffffffffffffffff1673ffffffffffffffffffffffffffffffffffffffff16815260200190815260200160002083611bd3565b905092915050565b610933611d24565b61093b611da2565b565b610945611d24565b61094f8282611e05565b5050565b61096461095e6115e2565b82611e13565b50565b6000600860008373ffffffffffffffffffffffffffffffffffffffff1673ffffffffffffffffffffffffffffffffffffffff16815260200190815260200160002060009054906101000a900473ffffffffffffffffffffffffffffffffffffffff169050919050565b6109e16109db6115e2565b82611e21565b50565b6000600560009054906101000a900460ff16905090565b6000600b54610a0983610a66565b10159050919050565b6000610a5f600960008473ffffffffffffffffffffffffffffffffffffffff1673ffffffffffffffffffffffffffffffffffffffff16815260200190815260200160002080549050611544565b9050919050565b60008060008373ffffffffffffffffffffffffffffffffffffffff1673ffffffffffffffffffffffffffffffffffffffff168152602001908152602001600020549050919050565b610ab6611d24565b610ac06000611f3b565b565b610aca611d24565b610ad2610848565b600a610ade9190613c11565b81610ae99190613d2f565b600b8190555050565b610b0482610afe6115e2565b836117b5565b610b0e8282611e13565b5050565b6000610b5b600660008473ffffffffffffffffffffffffffffffffffffffff1673ffffffffffffffffffffffffffffffffffffffff168152602001908152602001600020612001565b9050919050565b610b6a611d24565b610b7261200f565b565b6000600560019054906101000a900473ffffffffffffffffffffffffffffffffffffffff16905090565b6000438210610be2576040517f08c379a0000000000000000000000000000000000000000000000000000000008152600401610bd99061379b565b60405180910390fd5b610bed600a83611bd3565b9050919050565b606060048054610c0390613e87565b80601f0160208091040260200160405190810160405280929190818152602001828054610c2f90613e87565b8015610c7c5780601f10610c5157610100808354040283529160200191610c7c565b820191906000526020600020905b815481529060010190602001808311610c5f57829003601f168201915b5050505050905090565b600080600960008473ffffffffffffffffffffffffffffffffffffffff1673ffffffffffffffffffffffffffffffffffffffff16815260200190815260200160002080549050905060008114610d6e57600960008473ffffffffffffffffffffffffffffffffffffffff1673ffffffffffffffffffffffffffffffffffffffff168152602001908152602001600020600182610d229190613d89565b81548110610d3357610d32613f7f565b5b9060005260206000200160000160049054906101000a90047bffffffffffffffffffffffffffffffffffffffffffffffffffffffff16610d71565b60005b7bffffffffffffffffffffffffffffffffffffffffffffffffffffffff16915050919050565b600080610da26115e2565b90506000610db082866110be565b905083811015610df5576040517f08c379a0000000000000000000000000000000000000000000000000000000008152600401610dec90613a3b565b60405180910390fd5b610e0282868684036115ea565b60019250505092915050565b6000600c54610e1c83610a66565b10159050919050565b600080610e306115e2565b9050610e3d818585611841565b600191505092915050565b83421115610e8b576040517f08c379a0000000000000000000000000000000000000000000000000000000008152600401610e82906137db565b60405180910390fd5b6000610eed610ee57fe48329057bfd03d55e49b547132e39cffd9c1820ad7b9d4c5307691425d15adf898989604051602001610eca949392919061365c565b60405160208183030381529060405280519060200120612072565b85858561208c565b9050610ef8816120b7565b8614610f39576040517f08c379a0000000000000000000000000000000000000000000000000000000008152600401610f309061383b565b60405180910390fd5b610f438188611e21565b50505050505050565b83421115610f8f576040517f08c379a0000000000000000000000000000000000000000000000000000000008152600401610f86906138bb565b60405180910390fd5b60007f6e71edae12b1b97f4d1f60370fef10105fa2faae0126114a169c64845d6126c9888888610fbe8c6120b7565b89604051602001610fd4969594939291906135fb565b6040516020818303038152906040528051906020012090506000610ff782612072565b905060006110078287878761208c565b90508973ffffffffffffffffffffffffffffffffffffffff168173ffffffffffffffffffffffffffffffffffffffff1614611077576040517f08c379a000000000000000000000000000000000000000000000000000000000815260040161106e9061393b565b60405180910390fd5b6110828a8a8a6115ea565b50505050505050505050565b611096611d24565b61109e610848565b600a6110aa9190613c11565b816110b59190613d2f565b600c8190555050565b6000600160008473ffffffffffffffffffffffffffffffffffffffff1673ffffffffffffffffffffffffffffffffffffffff16815260200190815260200160002060008373ffffffffffffffffffffffffffffffffffffffff1673ffffffffffffffffffffffffffffffffffffffff16815260200190815260200160002054905092915050565b600b5481565b611153612dab565b600960008473ffffffffffffffffffffffffffffffffffffffff1673ffffffffffffffffffffffffffffffffffffffff1681526020019081526020016000208263ffffffff16815481106111aa576111a9613f7f565b5b906000526020600020016040518060400160405290816000820160009054906101000a900463ffffffff1663ffffffff1663ffffffff1681526020016000820160049054906101000a90047bffffffffffffffffffffffffffffffffffffffffffffffffffffffff167bffffffffffffffffffffffffffffffffffffffffffffffffffffffff167bffffffffffffffffffffffffffffffffffffffffffffffffffffffff1681525050905092915050565b611263611d24565b600073ffffffffffffffffffffffffffffffffffffffff168173ffffffffffffffffffffffffffffffffffffffff1614156112d3576040517f08c379a00000000000000000000000000000000000000000000000000000000081526004016112ca9061385b565b60405180910390fd5b6112dc81611f3b565b50565b6112e9828261136c565b6112f1612115565b7bffffffffffffffffffffffffffffffffffffffffffffffffffffffff16611317610809565b1115611358576040517f08c379a000000000000000000000000000000000000000000000000000000000815260040161134f9061395b565b60405180910390fd5b611366600a6114c383612139565b50505050565b600073ffffffffffffffffffffffffffffffffffffffff168273ffffffffffffffffffffffffffffffffffffffff1614156113dc576040517f08c379a00000000000000000000000000000000000000000000000000000000081526004016113d390613a5b565b60405180910390fd5b6113e860008383612408565b80600260008282546113fa9190613b37565b92505081905550806000808473ffffffffffffffffffffffffffffffffffffffff1673ffffffffffffffffffffffffffffffffffffffff168152602001908152602001600020600082825401925050819055508173ffffffffffffffffffffffffffffffffffffffff16600073ffffffffffffffffffffffffffffffffffffffff167fddf252ad1be2c89b69c2b068fc378daa952ba7f163c4a11628f55a4df523b3ef836040516114ab9190613a96565b60405180910390a36114bf60008383612420565b5050565b600081836114d19190613b37565b905092915050565b60007bffffffffffffffffffffffffffffffffffffffffffffffffffffffff801682111561153c576040517f08c379a00000000000000000000000000000000000000000000000000000000081526004016115339061399b565b60405180910390fd5b819050919050565b600063ffffffff801682111561158f576040517f08c379a0000000000000000000000000000000000000000000000000000000008152600401611586906139fb565b60405180910390fd5b819050919050565b505050565b6115a78383836115c7565b6115c26115b384610967565b6115bc84610967565b83612430565b505050565b505050565b600081836115da9190613d89565b905092915050565b600033905090565b600073ffffffffffffffffffffffffffffffffffffffff168373ffffffffffffffffffffffffffffffffffffffff16141561165a576040517f08c379a000000000000000000000000000000000000000000000000000000000815260040161165190613a1b565b60405180910390fd5b600073ffffffffffffffffffffffffffffffffffffffff168273ffffffffffffffffffffffffffffffffffffffff1614156116ca576040517f08c379a00000000000000000000000000000000000000000000000000000000081526004016116c19061387b565b60405180910390fd5b80600160008573ffffffffffffffffffffffffffffffffffffffff1673ffffffffffffffffffffffffffffffffffffffff16815260200190815260200160002060008473ffffffffffffffffffffffffffffffffffffffff1673ffffffffffffffffffffffffffffffffffffffff168152602001908152602001600020819055508173ffffffffffffffffffffffffffffffffffffffff168373ffffffffffffffffffffffffffffffffffffffff167f8c5be1e5ebec7d5bd14f71427d1e84f3dd0314c0f7b2291e5b200ac8c7c3b925836040516117a89190613a96565b60405180910390a3505050565b60006117c184846110be565b90507fffffffffffffffffffffffffffffffffffffffffffffffffffffffffffffffff811461183b578181101561182d576040517f08c379a00000000000000000000000000000000000000000000000000000000081526004016118249061389b565b60405180910390fd5b61183a84848484036115ea565b5b50505050565b600073ffffffffffffffffffffffffffffffffffffffff168373ffffffffffffffffffffffffffffffffffffffff1614156118b1576040517f08c379a00000000000000000000000000000000000000000000000000000000081526004016118a8906139db565b60405180910390fd5b600073ffffffffffffffffffffffffffffffffffffffff168273ffffffffffffffffffffffffffffffffffffffff161415611921576040517f08c379a00000000000000000000000000000000000000000000000000000000081526004016119189061377b565b60405180910390fd5b61192c838383612408565b60008060008573ffffffffffffffffffffffffffffffffffffffff1673ffffffffffffffffffffffffffffffffffffffff168152602001908152602001600020549050818110156119b2576040517f08c379a00000000000000000000000000000000000000000000000000000000081526004016119a9906138db565b60405180910390fd5b8181036000808673ffffffffffffffffffffffffffffffffffffffff1673ffffffffffffffffffffffffffffffffffffffff16815260200190815260200160002081905550816000808573ffffffffffffffffffffffffffffffffffffffff1673ffffffffffffffffffffffffffffffffffffffff168152602001908152602001600020600082825401925050819055508273ffffffffffffffffffffffffffffffffffffffff168473ffffffffffffffffffffffffffffffffffffffff167fddf252ad1be2c89b69c2b068fc378daa952ba7f163c4a11628f55a4df523b3ef84604051611aa09190613a96565b60405180910390a3611ab3848484612420565b50505050565b60007f000000000000000000000000000000000000000000000000000000000000000073ffffffffffffffffffffffffffffffffffffffff163073ffffffffffffffffffffffffffffffffffffffff16148015611b3557507f000000000000000000000000000000000000000000000000000000000000000046145b15611b62577f00000000000000000000000000000000000000000000000000000000000000009050611bd0565b611bcd7f00000000000000000000000000000000000000000000000000000000000000007f00000000000000000000000000000000000000000000000000000000000000007f0000000000000000000000000000000000000000000000000000000000000000612629565b90505b90565b600080838054905090506000808290506005831115611c49576000611bf784612663565b84611c029190613d89565b905085611c0f888361275d565b60000160009054906101000a900463ffffffff1663ffffffff161115611c3757809150611c47565b600181611c449190613b37565b92505b505b5b80821015611ca9576000611c5e8383612772565b905085611c6b888361275d565b60000160009054906101000a900463ffffffff1663ffffffff161115611c9357809150611ca3565b600181611ca09190613b37565b92505b50611c4a565b60008114611cf857611cc786600183611cc29190613d89565b61275d565b60000160049054906101000a90047bffffffffffffffffffffffffffffffffffffffffffffffffffffffff16611cfb565b60005b7bffffffffffffffffffffffffffffffffffffffffffffffffffffffff16935050505092915050565b611d2c6115e2565b73ffffffffffffffffffffffffffffffffffffffff16611d4a610b74565b73ffffffffffffffffffffffffffffffffffffffff1614611da0576040517f08c379a0000000000000000000000000000000000000000000000000000000008152600401611d979061397b565b60405180910390fd5b565b611daa612798565b6000600560006101000a81548160ff0219169083151502179055507f5db9ee0a495bf2e6ff9c91a7834c1ba4fdd244a5e8aa4e537bd38aeae4b073aa611dee6115e2565b604051611dfb91906135aa565b60405180910390a1565b611e0f82826112df565b5050565b611e1d82826127e1565b5050565b6000611e2c83610967565b90506000611e3984610a66565b905082600860008673ffffffffffffffffffffffffffffffffffffffff1673ffffffffffffffffffffffffffffffffffffffff16815260200190815260200160002060006101000a81548173ffffffffffffffffffffffffffffffffffffffff021916908373ffffffffffffffffffffffffffffffffffffffff1602179055508273ffffffffffffffffffffffffffffffffffffffff168273ffffffffffffffffffffffffffffffffffffffff168573ffffffffffffffffffffffffffffffffffffffff167f3134e8a2e6d97e929a7e54011ea5485d7d196dd5f0ba4d4ef95803e8e3fc257f60405160405180910390a4611f35828483612430565b50505050565b6000600560019054906101000a900473ffffffffffffffffffffffffffffffffffffffff16905081600560016101000a81548173ffffffffffffffffffffffffffffffffffffffff021916908373ffffffffffffffffffffffffffffffffffffffff1602179055508173ffffffffffffffffffffffffffffffffffffffff168173ffffffffffffffffffffffffffffffffffffffff167f8be0079c531659141344cd1fd0a4f28419497f9722a3daafe3b4186f6b6457e060405160405180910390a35050565b600081600001549050919050565b6120176127ff565b6001600560006101000a81548160ff0219169083151502179055507f62e78cea01bee320cd4e420270b5ea74000d11b0c9f74754ebdbfc544b05a25861205b6115e2565b60405161206891906135aa565b60405180910390a1565b600061208561207f611ab9565b83612849565b9050919050565b600080600061209d8787878761287c565b915091506120aa8161295f565b8192505050949350505050565b600080600660008473ffffffffffffffffffffffffffffffffffffffff1673ffffffffffffffffffffffffffffffffffffffff168152602001908152602001600020905061210481612001565b915061210f81612acd565b50919050565b60007bffffffffffffffffffffffffffffffffffffffffffffffffffffffff905090565b6000806000858054905090506000808214612208576121648760018461215f9190613d89565b61275d565b6040518060400160405290816000820160009054906101000a900463ffffffff1663ffffffff1663ffffffff1681526020016000820160049054906101000a90047bffffffffffffffffffffffffffffffffffffffffffffffffffffffff167bffffffffffffffffffffffffffffffffffffffffffffffffffffffff167bffffffffffffffffffffffffffffffffffffffffffffffffffffffff1681525050612244565b6040518060400160405280600063ffffffff16815260200160007bffffffffffffffffffffffffffffffffffffffffffffffffffffffff168152505b905080602001517bffffffffffffffffffffffffffffffffffffffffffffffffffffffff16935061227984868863ffffffff16565b9250600082118015612294575043816000015163ffffffff16145b1561230e576122a2836114d9565b6122b8886001856122b39190613d89565b61275d565b60000160046101000a8154817bffffffffffffffffffffffffffffffffffffffffffffffffffffffff02191690837bffffffffffffffffffffffffffffffffffffffffffffffffffffffff1602179055506123fe565b86604051806040016040528061232343611544565b63ffffffff168152602001612337866114d9565b7bffffffffffffffffffffffffffffffffffffffffffffffffffffffff168152509080600181540180825580915050600190039060005260206000200160009091909190915060008201518160000160006101000a81548163ffffffff021916908363ffffffff16021790555060208201518160000160046101000a8154817bffffffffffffffffffffffffffffffffffffffffffffffffffffffff02191690837bffffffffffffffffffffffffffffffffffffffffffffffffffffffff16021790555050505b5050935093915050565b6124106127ff565b61241b838383611597565b505050565b61242b83838361159c565b505050565b8173ffffffffffffffffffffffffffffffffffffffff168373ffffffffffffffffffffffffffffffffffffffff161415801561246c5750600081115b1561262457600073ffffffffffffffffffffffffffffffffffffffff168373ffffffffffffffffffffffffffffffffffffffff161461254a576000806124f3600960008773ffffffffffffffffffffffffffffffffffffffff1673ffffffffffffffffffffffffffffffffffffffff1681526020019081526020016000206115cc85612139565b915091508473ffffffffffffffffffffffffffffffffffffffff167fdec2bacdd2f05b59de34da9b523dff8be42e5e38e818c82fdb0bae774387a724838360405161253f929190613ab1565b60405180910390a250505b600073ffffffffffffffffffffffffffffffffffffffff168273ffffffffffffffffffffffffffffffffffffffff1614612623576000806125cc600960008673ffffffffffffffffffffffffffffffffffffffff1673ffffffffffffffffffffffffffffffffffffffff1681526020019081526020016000206114c385612139565b915091508373ffffffffffffffffffffffffffffffffffffffff167fdec2bacdd2f05b59de34da9b523dff8be42e5e38e818c82fdb0bae774387a7248383604051612618929190613ab1565b60405180910390a250505b5b505050565b600083838346306040516020016126449594939291906136a1565b6040516020818303038152906040528051906020012090509392505050565b6000808214156126765760009050612758565b6000600161268384612ae3565b901c6001901b9050600181848161269d5761269c613ef2565b5b048201901c905060018184816126b6576126b5613ef2565b5b048201901c905060018184816126cf576126ce613ef2565b5b048201901c905060018184816126e8576126e7613ef2565b5b048201901c9050600181848161270157612700613ef2565b5b048201901c9050600181848161271a57612719613ef2565b5b048201901c9050600181848161273357612732613ef2565b5b048201901c90506127548182858161274e5761274d613ef2565b5b04612bc4565b9150505b919050565b60008260005281602060002001905092915050565b600060028284186127839190613b8d565b8284166127909190613b37565b905092915050565b6127a06109e4565b6127df576040517f08c379a00000000000000000000000000000000000000000000000000000000081526004016127d6906137bb565b60405180910390fd5b565b6127eb8282612bdd565b6127f9600a6115cc83612139565b50505050565b6128076109e4565b15612847576040517f08c379a000000000000000000000000000000000000000000000000000000000815260040161283e9061391b565b60405180910390fd5b565b6000828260405160200161285e929190613573565b60405160208183030381529060405280519060200120905092915050565b6000807f7fffffffffffffffffffffffffffffff5d576e7357a4501ddfe92f46681b20a08360001c11156128b7576000600391509150612956565b6000600187878787604051600081526020016040526040516128dc94939291906136f4565b6020604051602081039080840390855afa1580156128fe573d6000803e3d6000fd5b505050602060405103519050600073ffffffffffffffffffffffffffffffffffffffff168173ffffffffffffffffffffffffffffffffffffffff16141561294d57600060019250925050612956565b80600092509250505b94509492505050565b6000600481111561297357612972613f21565b5b81600481111561298657612985613f21565b5b141561299157612aca565b600160048111156129a5576129a4613f21565b5b8160048111156129b8576129b7613f21565b5b14156129f9576040517f08c379a00000000000000000000000000000000000000000000000000000000081526004016129f09061375b565b60405180910390fd5b60026004811115612a0d57612a0c613f21565b5b816004811115612a2057612a1f613f21565b5b1415612a61576040517f08c379a0000000000000000000000000000000000000000000000000000000008152600401612a589061381b565b60405180910390fd5b60036004811115612a7557612a74613f21565b5b816004811115612a8857612a87613f21565b5b1415612ac9576040517f08c379a0000000000000000000000000000000000000000000000000000000008152600401612ac0906138fb565b60405180910390fd5b5b50565b6001816000016000828254019250508190555050565b600080600090506000608084901c1115612b0557608083901c92506080810190505b6000604084901c1115612b2057604083901c92506040810190505b6000602084901c1115612b3b57602083901c92506020810190505b6000601084901c1115612b5657601083901c92506010810190505b6000600884901c1115612b7157600883901c92506008810190505b6000600484901c1115612b8c57600483901c92506004810190505b6000600284901c1115612ba757600283901c92506002810190505b6000600184901c1115612bbb576001810190505b80915050919050565b6000818310612bd35781612bd5565b825b905092915050565b600073ffffffffffffffffffffffffffffffffffffffff168273ffffffffffffffffffffffffffffffffffffffff161415612c4d576040517f08c379a0000000000000000000000000000000000000000000000000000000008152600401612c44906139bb565b60405180910390fd5b612c5982600083612408565b60008060008473ffffffffffffffffffffffffffffffffffffffff1673ffffffffffffffffffffffffffffffffffffffff16815260200190815260200160002054905081811015612cdf576040517f08c379a0000000000000000000000000000000000000000000000000000000008152600401612cd6906137fb565b60405180910390fd5b8181036000808573ffffffffffffffffffffffffffffffffffffffff1673ffffffffffffffffffffffffffffffffffffffff1681526020019081526020016000208190555081600260008282540392505081905550600073ffffffffffffffffffffffffffffffffffffffff168373ffffffffffffffffffffffffffffffffffffffff167fddf252ad1be2c89b69c2b068fc378daa952ba7f163c4a11628f55a4df523b3ef84604051612d929190613a96565b60405180910390a3612da683600084612420565b505050565b6040518060400160405280600063ffffffff16815260200160007bffffffffffffffffffffffffffffffffffffffffffffffffffffffff1681525090565b600081359050612df8816145e9565b92915050565b600081359050612e0d81614600565b92915050565b600081359050612e2281614617565b92915050565b600081359050612e378161462e565b92915050565b600081359050612e4c81614645565b92915050565b600060208284031215612e6857612e67613fae565b5b6000612e7684828501612de9565b91505092915050565b60008060408385031215612e9657612e95613fae565b5b6000612ea485828601612de9565b9250506020612eb585828601612de9565b9150509250929050565b600080600060608486031215612ed857612ed7613fae565b5b6000612ee686828701612de9565b9350506020612ef786828701612de9565b9250506040612f0886828701612e13565b9150509250925092565b600080600080600080600060e0888a031215612f3157612f30613fae565b5b6000612f3f8a828b01612de9565b9750506020612f508a828b01612de9565b9650506040612f618a828b01612e13565b9550506060612f728a828b01612e13565b9450506080612f838a828b01612e3d565b93505060a0612f948a828b01612dfe565b92505060c0612fa58a828b01612dfe565b91505092959891949750929550565b60008060408385031215612fcb57612fca613fae565b5b6000612fd985828601612de9565b9250506020612fea85828601612e13565b9150509250929050565b60008060008060008060c0878903121561301157613010613fae565b5b600061301f89828a01612de9565b965050602061303089828a01612e13565b955050604061304189828a01612e13565b945050606061305289828a01612e3d565b935050608061306389828a01612dfe565b92505060a061307489828a01612dfe565b9150509295509295509295565b6000806040838503121561309857613097613fae565b5b60006130a685828601612de9565b92505060206130b785828601612e28565b9150509250929050565b6000602082840312156130d7576130d6613fae565b5b60006130e584828501612e13565b91505092915050565b6130f781613dbd565b82525050565b61310681613dcf565b82525050565b61311581613ddb565b82525050565b61312c61312782613ddb565b613eb9565b82525050565b600061313d82613b10565b6131478185613b1b565b9350613157818560208601613e54565b61316081613fb3565b840191505092915050565b6000613178601883613b1b565b915061318382613fd1565b602082019050919050565b600061319b602383613b1b565b91506131a682613ffa565b604082019050919050565b60006131be601f83613b1b565b91506131c982614049565b602082019050919050565b60006131e1601483613b1b565b91506131ec82614072565b602082019050919050565b6000613204601d83613b1b565b915061320f8261409b565b602082019050919050565b6000613227602283613b1b565b9150613232826140c4565b604082019050919050565b600061324a601f83613b1b565b915061325582614113565b602082019050919050565b600061326d601983613b1b565b91506132788261413c565b602082019050919050565b6000613290602683613b1b565b915061329b82614165565b604082019050919050565b60006132b3602283613b1b565b91506132be826141b4565b604082019050919050565b60006132d6600283613b2c565b91506132e182614203565b600282019050919050565b60006132f9601d83613b1b565b91506133048261422c565b602082019050919050565b600061331c601d83613b1b565b915061332782614255565b602082019050919050565b600061333f602683613b1b565b915061334a8261427e565b604082019050919050565b6000613362602283613b1b565b915061336d826142cd565b604082019050919050565b6000613385601083613b1b565b91506133908261431c565b602082019050919050565b60006133a8601e83613b1b565b91506133b382614345565b602082019050919050565b60006133cb603083613b1b565b91506133d68261436e565b604082019050919050565b60006133ee602083613b1b565b91506133f9826143bd565b602082019050919050565b6000613411602783613b1b565b915061341c826143e6565b604082019050919050565b6000613434602183613b1b565b915061343f82614435565b604082019050919050565b6000613457602583613b1b565b915061346282614484565b604082019050919050565b600061347a602683613b1b565b9150613485826144d3565b604082019050919050565b600061349d602483613b1b565b91506134a882614522565b604082019050919050565b60006134c0602583613b1b565b91506134cb82614571565b604082019050919050565b60006134e3601f83613b1b565b91506134ee826145c0565b602082019050919050565b60408201600082015161350f6000850182613546565b5060208201516135226020850182613528565b50505050565b61353181613e05565b82525050565b61354081613e2d565b82525050565b61354f81613e37565b82525050565b61355e81613e37565b82525050565b61356d81613e47565b82525050565b600061357e826132c9565b915061358a828561311b565b60208201915061359a828461311b565b6020820191508190509392505050565b60006020820190506135bf60008301846130ee565b92915050565b60006020820190506135da60008301846130fd565b92915050565b60006020820190506135f5600083018461310c565b92915050565b600060c082019050613610600083018961310c565b61361d60208301886130ee565b61362a60408301876130ee565b6136376060830186613537565b6136446080830185613537565b61365160a0830184613537565b979650505050505050565b6000608082019050613671600083018761310c565b61367e60208301866130ee565b61368b6040830185613537565b6136986060830184613537565b95945050505050565b600060a0820190506136b6600083018861310c565b6136c3602083018761310c565b6136d0604083018661310c565b6136dd6060830185613537565b6136ea60808301846130ee565b9695505050505050565b6000608082019050613709600083018761310c565b6137166020830186613564565b613723604083018561310c565b613730606083018461310c565b95945050505050565b600060208201905081810360008301526137538184613132565b905092915050565b600060208201905081810360008301526137748161316b565b9050919050565b600060208201905081810360008301526137948161318e565b9050919050565b600060208201905081810360008301526137b4816131b1565b9050919050565b600060208201905081810360008301526137d4816131d4565b9050919050565b600060208201905081810360008301526137f4816131f7565b9050919050565b600060208201905081810360008301526138148161321a565b9050919050565b600060208201905081810360008301526138348161323d565b9050919050565b6000602082019050818103600083015261385481613260565b9050919050565b6000602082019050818103600083015261387481613283565b9050919050565b60006020820190508181036000830152613894816132a6565b9050919050565b600060208201905081810360008301526138b4816132ec565b9050919050565b600060208201905081810360008301526138d48161330f565b9050919050565b600060208201905081810360008301526138f481613332565b9050919050565b6000602082019050818103600083015261391481613355565b9050919050565b6000602082019050818103600083015261393481613378565b9050919050565b600060208201905081810360008301526139548161339b565b9050919050565b60006020820190508181036000830152613974816133be565b9050919050565b60006020820190508181036000830152613994816133e1565b9050919050565b600060208201905081810360008301526139b481613404565b9050919050565b600060208201905081810360008301526139d481613427565b9050919050565b600060208201905081810360008301526139f48161344a565b9050919050565b60006020820190508181036000830152613a148161346d565b9050919050565b60006020820190508181036000830152613a3481613490565b9050919050565b60006020820190508181036000830152613a54816134b3565b9050919050565b60006020820190508181036000830152613a74816134d6565b9050919050565b6000604082019050613a9060008301846134f9565b92915050565b6000602082019050613aab6000830184613537565b92915050565b6000604082019050613ac66000830185613537565b613ad36020830184613537565b9392505050565b6000602082019050613aef6000830184613555565b92915050565b6000602082019050613b0a6000830184613564565b92915050565b600081519050919050565b600082825260208201905092915050565b600081905092915050565b6000613b4282613e2d565b9150613b4d83613e2d565b9250827fffffffffffffffffffffffffffffffffffffffffffffffffffffffffffffffff03821115613b8257613b81613ec3565b5b828201905092915050565b6000613b9882613e2d565b9150613ba383613e2d565b925082613bb357613bb2613ef2565b5b828204905092915050565b6000808291508390505b6001851115613c0857808604811115613be457613be3613ec3565b5b6001851615613bf35780820291505b8081029050613c0185613fc4565b9450613bc8565b94509492505050565b6000613c1c82613e2d565b9150613c2783613e47565b9250613c547fffffffffffffffffffffffffffffffffffffffffffffffffffffffffffffffff8484613c5c565b905092915050565b600082613c6c5760019050613d28565b81613c7a5760009050613d28565b8160018114613c905760028114613c9a57613cc9565b6001915050613d28565b60ff841115613cac57613cab613ec3565b5b8360020a915084821115613cc357613cc2613ec3565b5b50613d28565b5060208310610133831016604e8410600b8410161715613cfe5782820a905083811115613cf957613cf8613ec3565b5b613d28565b613d0b8484846001613bbe565b92509050818404811115613d2257613d21613ec3565b5b81810290505b9392505050565b6000613d3a82613e2d565b9150613d4583613e2d565b9250817fffffffffffffffffffffffffffffffffffffffffffffffffffffffffffffffff0483118215151615613d7e57613d7d613ec3565b5b828202905092915050565b6000613d9482613e2d565b9150613d9f83613e2d565b925082821015613db257613db1613ec3565b5b828203905092915050565b6000613dc882613de5565b9050919050565b60008115159050919050565b6000819050919050565b600073ffffffffffffffffffffffffffffffffffffffff82169050919050565b60007bffffffffffffffffffffffffffffffffffffffffffffffffffffffff82169050919050565b6000819050919050565b600063ffffffff82169050919050565b600060ff82169050919050565b60005b83811015613e72578082015181840152602081019050613e57565b83811115613e81576000848401525b50505050565b60006002820490506001821680613e9f57607f821691505b60208210811415613eb357613eb2613f50565b5b50919050565b6000819050919050565b7f4e487b7100000000000000000000000000000000000000000000000000000000600052601160045260246000fd5b7f4e487b7100000000000000000000000000000000000000000000000000000000600052601260045260246000fd5b7f4e487b7100000000000000000000000000000000000000000000000000000000600052602160045260246000fd5b7f4e487b7100000000000000000000000000000000000000000000000000000000600052602260045260246000fd5b7f4e487b7100000000000000000000000000000000000000000000000000000000600052603260045260246000fd5b600080fd5b6000601f19601f8301169050919050565b60008160011c9050919050565b7f45434453413a20696e76616c6964207369676e61747572650000000000000000600082015250565b7f45524332303a207472616e7366657220746f20746865207a65726f206164647260008201527f6573730000000000000000000000000000000000000000000000000000000000602082015250565b7f4552433230566f7465733a20626c6f636b206e6f7420796574206d696e656400600082015250565b7f5061757361626c653a206e6f7420706175736564000000000000000000000000600082015250565b7f4552433230566f7465733a207369676e61747572652065787069726564000000600082015250565b7f45524332303a206275726e20616d6f756e7420657863656564732062616c616e60008201527f6365000000000000000000000000000000000000000000000000000000000000602082015250565b7f45434453413a20696e76616c6964207369676e6174757265206c656e67746800600082015250565b7f4552433230566f7465733a20696e76616c6964206e6f6e636500000000000000600082015250565b7f4f776e61626c653a206e6577206f776e657220697320746865207a65726f206160008201527f6464726573730000000000000000000000000000000000000000000000000000602082015250565b7f45524332303a20617070726f766520746f20746865207a65726f20616464726560008201527f7373000000000000000000000000000000000000000000000000000000000000602082015250565b7f1901000000000000000000000000000000000000000000000000000000000000600082015250565b7f45524332303a20696e73756666696369656e7420616c6c6f77616e6365000000600082015250565b7f45524332305065726d69743a206578706972656420646561646c696e65000000600082015250565b7f45524332303a207472616e7366657220616d6f756e742065786365656473206260008201527f616c616e63650000000000000000000000000000000000000000000000000000602082015250565b7f45434453413a20696e76616c6964207369676e6174757265202773272076616c60008201527f7565000000000000000000000000000000000000000000000000000000000000602082015250565b7f5061757361626c653a2070617573656400000000000000000000000000000000600082015250565b7f45524332305065726d69743a20696e76616c6964207369676e61747572650000600082015250565b7f4552433230566f7465733a20746f74616c20737570706c79207269736b73206f60008201527f766572666c6f77696e6720766f74657300000000000000000000000000000000602082015250565b7f4f776e61626c653a2063616c6c6572206973206e6f7420746865206f776e6572600082015250565b7f53616665436173743a2076616c756520646f65736e27742066697420696e203260008201527f3234206269747300000000000000000000000000000000000000000000000000602082015250565b7f45524332303a206275726e2066726f6d20746865207a65726f2061646472657360008201527f7300000000000000000000000000000000000000000000000000000000000000602082015250565b7f45524332303a207472616e736665722066726f6d20746865207a65726f20616460008201527f6472657373000000000000000000000000000000000000000000000000000000602082015250565b7f53616665436173743a2076616c756520646f65736e27742066697420696e203360008201527f3220626974730000000000000000000000000000000000000000000000000000602082015250565b7f45524332303a20617070726f76652066726f6d20746865207a65726f2061646460008201527f7265737300000000000000000000000000000000000000000000000000000000602082015250565b7f45524332303a2064656372656173656420616c6c6f77616e63652062656c6f7760008201527f207a65726f000000000000000000000000000000000000000000000000000000602082015250565b7f45524332303a206d696e7420746f20746865207a65726f206164647265737300600082015250565b6145f281613dbd565b81146145fd57600080fd5b50565b61460981613ddb565b811461461457600080fd5b50565b61462081613e2d565b811461462b57600080fd5b50565b61463781613e37565b811461464257600080fd5b50565b61464e81613e47565b811461465957600080fd5b5056fea26469706673582212208c749b1f86507d3cd0ae2c243c65d0363ec4fd6f630b5a70e01d098d585d029564736f6c63430008070033",
  "devdoc": {
    "custom:security-contact": "uzairhajra76330@gmail.com",
    "kind": "dev",
    "methods": {
      "DOMAIN_SEPARATOR()": {
        "details": "See {IERC20Permit-DOMAIN_SEPARATOR}."
      },
      "allowance(address,address)": {
        "details": "See {IERC20-allowance}."
      },
      "approve(address,uint256)": {
        "details": "See {IERC20-approve}. NOTE: If `amount` is the maximum `uint256`, the allowance is not updated on `transferFrom`. This is semantically equivalent to an infinite approval. Requirements: - `spender` cannot be the zero address."
      },
      "balanceOf(address)": {
        "details": "See {IERC20-balanceOf}."
      },
      "burn(uint256)": {
        "details": "Destroys `amount` tokens from the caller. See {ERC20-_burn}."
      },
      "burnFrom(address,uint256)": {
        "details": "Destroys `amount` tokens from `account`, deducting from the caller's allowance. See {ERC20-_burn} and {ERC20-allowance}. Requirements: - the caller must have allowance for ``accounts``'s tokens of at least `amount`."
      },
      "checkpoints(address,uint32)": {
        "details": "Get the `pos`-th checkpoint for `account`."
      },
      "decimals()": {
        "details": "Returns the number of decimals used to get its user representation. For example, if `decimals` equals `2`, a balance of `505` tokens should be displayed to a user as `5.05` (`505 / 10 ** 2`). Tokens usually opt for a value of 18, imitating the relationship between Ether and Wei. This is the value {ERC20} uses, unless this function is overridden; NOTE: This information is only used for _display_ purposes: it in no way affects any of the arithmetic of the contract, including {IERC20-balanceOf} and {IERC20-transfer}."
      },
      "decreaseAllowance(address,uint256)": {
        "details": "Atomically decreases the allowance granted to `spender` by the caller. This is an alternative to {approve} that can be used as a mitigation for problems described in {IERC20-approve}. Emits an {Approval} event indicating the updated allowance. Requirements: - `spender` cannot be the zero address. - `spender` must have allowance for the caller of at least `subtractedValue`."
      },
      "delegate(address)": {
        "details": "Delegate votes from the sender to `delegatee`."
      },
      "delegateBySig(address,uint256,uint256,uint8,bytes32,bytes32)": {
        "details": "Delegates votes from signer to `delegatee`"
      },
      "delegates(address)": {
        "details": "Get the address `account` is currently delegating to."
      },
      "getPastTotalSupply(uint256)": {
        "details": "Retrieve the `totalSupply` at the end of `blockNumber`. Note, this value is the sum of all balances. It is but NOT the sum of all the delegated votes! Requirements: - `blockNumber` must have been already mined"
      },
      "getPastVotes(address,uint256)": {
        "details": "Retrieve the number of votes for `account` at the end of `blockNumber`. Requirements: - `blockNumber` must have been already mined"
      },
      "getVotes(address)": {
        "details": "Gets the current votes balance for `account`"
      },
      "increaseAllowance(address,uint256)": {
        "details": "Atomically increases the allowance granted to `spender` by the caller. This is an alternative to {approve} that can be used as a mitigation for problems described in {IERC20-approve}. Emits an {Approval} event indicating the updated allowance. Requirements: - `spender` cannot be the zero address."
      },
      "name()": {
        "details": "Returns the name of the token."
      },
      "nonces(address)": {
        "details": "See {IERC20Permit-nonces}."
      },
      "numCheckpoints(address)": {
        "details": "Get number of checkpoints for `account`."
      },
      "owner()": {
        "details": "Returns the address of the current owner."
      },
      "paused()": {
        "details": "Returns true if the contract is paused, and false otherwise."
      },
      "permit(address,address,uint256,uint256,uint8,bytes32,bytes32)": {
        "details": "See {IERC20Permit-permit}."
      },
      "renounceOwnership()": {
        "details": "Leaves the contract without owner. It will not be possible to call `onlyOwner` functions anymore. Can only be called by the current owner. NOTE: Renouncing ownership will leave the contract without an owner, thereby removing any functionality that is only available to the owner."
      },
      "symbol()": {
        "details": "Returns the symbol of the token, usually a shorter version of the name."
      },
      "totalSupply()": {
        "details": "See {IERC20-totalSupply}."
      },
      "transfer(address,uint256)": {
        "details": "See {IERC20-transfer}. Requirements: - `to` cannot be the zero address. - the caller must have a balance of at least `amount`."
      },
      "transferFrom(address,address,uint256)": {
        "details": "See {IERC20-transferFrom}. Emits an {Approval} event indicating the updated allowance. This is not required by the EIP. See the note at the beginning of {ERC20}. NOTE: Does not update the allowance if the current allowance is the maximum `uint256`. Requirements: - `from` and `to` cannot be the zero address. - `from` must have a balance of at least `amount`. - the caller must have allowance for ``from``'s tokens of at least `amount`."
      },
      "transferOwnership(address)": {
        "details": "Transfers ownership of the contract to a new account (`newOwner`). Can only be called by the current owner."
      }
    },
    "version": 1
  },
  "userdoc": {
    "kind": "user",
    "methods": {},
    "version": 1
  },
  "storageLayout": {
    "storage": [
      {
        "astId": 314,
        "contract": "contracts/TIP.sol:TIP",
        "label": "_balances",
        "offset": 0,
        "slot": "0",
        "type": "t_mapping(t_address,t_uint256)"
      },
      {
        "astId": 320,
        "contract": "contracts/TIP.sol:TIP",
        "label": "_allowances",
        "offset": 0,
        "slot": "1",
        "type": "t_mapping(t_address,t_mapping(t_address,t_uint256))"
      },
      {
        "astId": 322,
        "contract": "contracts/TIP.sol:TIP",
        "label": "_totalSupply",
        "offset": 0,
        "slot": "2",
        "type": "t_uint256"
      },
      {
        "astId": 324,
        "contract": "contracts/TIP.sol:TIP",
        "label": "_name",
        "offset": 0,
        "slot": "3",
        "type": "t_string_storage"
      },
      {
        "astId": 326,
        "contract": "contracts/TIP.sol:TIP",
        "label": "_symbol",
        "offset": 0,
        "slot": "4",
        "type": "t_string_storage"
      },
      {
        "astId": 208,
        "contract": "contracts/TIP.sol:TIP",
        "label": "_paused",
        "offset": 0,
        "slot": "5",
        "type": "t_bool"
      },
      {
        "astId": 7,
        "contract": "contracts/TIP.sol:TIP",
        "label": "_owner",
        "offset": 1,
        "slot": "5",
        "type": "t_address"
      },
      {
        "astId": 1753,
        "contract": "contracts/TIP.sol:TIP",
        "label": "_nonces",
        "offset": 0,
        "slot": "6",
        "type": "t_mapping(t_address,t_struct(Counter)1966_storage)"
      },
      {
        "astId": 1761,
        "contract": "contracts/TIP.sol:TIP",
        "label": "_PERMIT_TYPEHASH_DEPRECATED_SLOT",
        "offset": 0,
        "slot": "7",
        "type": "t_bytes32"
      },
      {
        "astId": 1033,
        "contract": "contracts/TIP.sol:TIP",
        "label": "_delegates",
        "offset": 0,
        "slot": "8",
        "type": "t_mapping(t_address,t_address)"
      },
      {
        "astId": 1039,
        "contract": "contracts/TIP.sol:TIP",
        "label": "_checkpoints",
        "offset": 0,
        "slot": "9",
        "type": "t_mapping(t_address,t_array(t_struct(Checkpoint)1024_storage)dyn_storage)"
      },
      {
        "astId": 1043,
        "contract": "contracts/TIP.sol:TIP",
        "label": "_totalSupplyCheckpoints",
        "offset": 0,
        "slot": "10",
        "type": "t_array(t_struct(Checkpoint)1024_storage)dyn_storage"
      },
      {
        "astId": 5153,
        "contract": "contracts/TIP.sol:TIP",
        "label": "postThreshold",
        "offset": 0,
        "slot": "11",
        "type": "t_uint256"
      },
      {
        "astId": 5155,
        "contract": "contracts/TIP.sol:TIP",
        "label": "commentThreshold",
        "offset": 0,
        "slot": "12",
        "type": "t_uint256"
      }
    ],
    "types": {
      "t_address": {
        "encoding": "inplace",
        "label": "address",
        "numberOfBytes": "20"
      },
      "t_array(t_struct(Checkpoint)1024_storage)dyn_storage": {
        "base": "t_struct(Checkpoint)1024_storage",
        "encoding": "dynamic_array",
        "label": "struct ERC20Votes.Checkpoint[]",
        "numberOfBytes": "32"
      },
      "t_bool": {
        "encoding": "inplace",
        "label": "bool",
        "numberOfBytes": "1"
      },
      "t_bytes32": {
        "encoding": "inplace",
        "label": "bytes32",
        "numberOfBytes": "32"
      },
      "t_mapping(t_address,t_address)": {
        "encoding": "mapping",
        "key": "t_address",
        "label": "mapping(address => address)",
        "numberOfBytes": "32",
        "value": "t_address"
      },
      "t_mapping(t_address,t_array(t_struct(Checkpoint)1024_storage)dyn_storage)": {
        "encoding": "mapping",
        "key": "t_address",
        "label": "mapping(address => struct ERC20Votes.Checkpoint[])",
        "numberOfBytes": "32",
        "value": "t_array(t_struct(Checkpoint)1024_storage)dyn_storage"
      },
      "t_mapping(t_address,t_mapping(t_address,t_uint256))": {
        "encoding": "mapping",
        "key": "t_address",
        "label": "mapping(address => mapping(address => uint256))",
        "numberOfBytes": "32",
        "value": "t_mapping(t_address,t_uint256)"
      },
      "t_mapping(t_address,t_struct(Counter)1966_storage)": {
        "encoding": "mapping",
        "key": "t_address",
        "label": "mapping(address => struct Counters.Counter)",
        "numberOfBytes": "32",
        "value": "t_struct(Counter)1966_storage"
      },
      "t_mapping(t_address,t_uint256)": {
        "encoding": "mapping",
        "key": "t_address",
        "label": "mapping(address => uint256)",
        "numberOfBytes": "32",
        "value": "t_uint256"
      },
      "t_string_storage": {
        "encoding": "bytes",
        "label": "string",
        "numberOfBytes": "32"
      },
      "t_struct(Checkpoint)1024_storage": {
        "encoding": "inplace",
        "label": "struct ERC20Votes.Checkpoint",
        "members": [
          {
            "astId": 1021,
            "contract": "contracts/TIP.sol:TIP",
            "label": "fromBlock",
            "offset": 0,
            "slot": "0",
            "type": "t_uint32"
          },
          {
            "astId": 1023,
            "contract": "contracts/TIP.sol:TIP",
            "label": "votes",
            "offset": 4,
            "slot": "0",
            "type": "t_uint224"
          }
        ],
        "numberOfBytes": "32"
      },
      "t_struct(Counter)1966_storage": {
        "encoding": "inplace",
        "label": "struct Counters.Counter",
        "members": [
          {
            "astId": 1965,
            "contract": "contracts/TIP.sol:TIP",
            "label": "_value",
            "offset": 0,
            "slot": "0",
            "type": "t_uint256"
          }
        ],
        "numberOfBytes": "32"
      },
      "t_uint224": {
        "encoding": "inplace",
        "label": "uint224",
        "numberOfBytes": "28"
      },
      "t_uint256": {
        "encoding": "inplace",
        "label": "uint256",
        "numberOfBytes": "32"
      },
      "t_uint32": {
        "encoding": "inplace",
        "label": "uint32",
        "numberOfBytes": "4"
      }
    }
  }
}